:03000000021EDFFE
:0C1EDF00787FE4F6D8FD758121021F26F3
:0C000300000000000000000000000000F1
:0B24BD00EF1FAC0670011E4C70F622F1
:10002A00AB07AA06EB1BAE0270011A4E60097FAA43
:08003A007E051224BD80ED22B9
:101B9300907120E04480F07F057E001224BDE4FFB5
:101BA300FE12002A75A75575AC589071327450F027
:101BB3009071307403F0907136742FF07F18EF2416
:101BC30066FDE434718D82F583E4F00FEFB433EEF8
:101BD300904011E4935407FF90711CE054F84FF0C8
:101BE300904017E493547FFF90711DE054804FF0B1
:101BF300904010E493FF5401C43333335480FE9078
:101C03007123E0547F4EF0EFC313543F4440FFA3CE
:101C1300E054804FF0904012E493FF540FFE907114
:101C230046E054F04EF0EFC4540FFF90714FE05470
:101C3300F04FF0904013E493543FFF907140E05411
:101C4300C04FF0904014E493907126F0904015E457
:0E1C530093907128F0904016E49390712AF05F
:011C61002260
:07112700446331428C00001B
:102346007417F0A37470F022C390630FE09470903A
:10235600630EE0941722C3906311E09470906310AB
:04236600E0941722C6
:101D0C0012234E4003021D9312235C507AE4FFFE13
:101D1C007D807CBF9063311206E112004CE4FBFA2B
:101D2C0079A87842120246E4FBFA798078BF120057
:101D3C004C9063351206FD9063311206C5E4FBFA34
:101D4C00F9783F12004C9063311206FD9063351206
:101D5C0006C59063161206FD7F007E007DA07C40B8
:101D6C001212B7E4FBFA7970784212013D1202E3C9
:101D7C0090630EEEF0A3EFF090630EE0FFA3E09003
:101D8C006310CFF0A3EFF012234E500512235C40EA
:0E1D9C000C90630E1223469063101223462211
:10179A0075D9DD121B9375D95590715EE054FEF030
:1017AA0075D9BB12231912244812242D121C621255
:1017BA0023D01223AF12227F12245A906344122399
:1017CA004690630C12234690630812234690630ADC
:1017DA00122346C294E490630EF0A3F0906310F0D3
:1017EA00A3F0D206906344E0FEA3E0FFC390630F28
:1017FA00E09F90630EE09E4014906344E0FEA3E0F5
:10180A00FF906311E09F906310E09E50281218A782
:10181A00300102C201300805C208121D0C90630E85
:10182A00E0FEA3E0FF1224D3906310E0FEA3E0FFE2
:10183A001224DC80AF90630EE0FFA3E0906304CF34
:10184A00F0A3EFF0906310E0FFA3E0906306CFF0FF
:10185A00A3EFF0C2061218A71220CC12220A1222F3
:10186A00E7C29430020C7B017A627982120F9412D9
:10187A000AD3906300E0FEA3E0FF1221799063048B
:10188A00EEF0A3EFF0906302E0FEA3E0FF122179ED
:0D189A00906306EEF0A3EFF012236A80B811
:10112E00426308177042630A177042630C177042CD
:10113E0063001770426304177042630217704263B4
:03114E0006177011
:0B24C800AC06ECF218EFF27817E222ED
:101C62007812E24401F278567407F278277417F278
:101C720018746FF27833E4F218F27819E24401F240
:101C82007811E24401F27817E24401F27812E24458
:101C920001F27814E24401F27818E24401F278D3B6
:101CA200E254CFF2E24410F2E254FCF2E24401F2D6
:101CB20090718AE4F090718C740AF07812E2440216
:101CC200F278577407F278297417F218746FF27861
:101CD20037E4F218F27819E24402F27811E244028F
:101CE200F27817E24402F27812E24402F27814E245
:101CF2004402F27818E24402F278D3E254F3F2E2B8
:0A1D02004404F290718B7409F02282
:0924D30078331224C84401F222FE
:0924DC0078371224C84402F222F0
:0C24A5007818E230E0037F01227F002263
:0C24B1007818E230E1037F01227F002256
:0D248B007818E24401F290718C740AF0227E
:0E000F007818E254FEF290718CE4F0D2962242
:0D2498007818E24402F290718B7409F02272
:0E247D007818E254FDF290718BE4F0D29522B3
:10217900906344E0FCA3E0FD1207BFE47B707A178B
:10218900F9F81205EED3906309E09F906308E09E89
:102199005005E0FEA3E0FFD390630BE09F90630A34
:1021A900E09E5005E0FEA3E0FFD390630DE09F9011
:0B21B900630CE09E5005E0FEA3E0FF79
:0121C40022F8
:101151004162F9004462D2000000004262D0000006
:10116100C1074162FB004162FA004162D600602082
:1011710062D7FFFF00000000000000000000000037
:10118100000000000000000000000000000000005E
:1011910000004162C7004462C8000000004262CC06
:0711A10000004262CEFFFFD7
:10241000E0FF906321E09F906320E09E229062C7DE
:0D242000E0C3941422906320E0FFA3E022AB
:1023190078F2E24403F278E3E244C0F278F0E2545E
:10232900FDF208E254FDF208E2440CF278D0E254DE
:0D233900F7F208E254F7F208E244C0F22285
:1024480043AA04D2AF786AE24479F27F017E00029F
:02245800002A58
:10212300907123E05498F09071227407F0EF24FE2D
:10213300601614601F1460282403702E907123E02E
:10214300445DF07599178022907123E0441EF07569
:1021530099198016907123E0445DF0759918800AEF
:10216300907123E0441EF075990B43AA04D2AF7813
:0621730069E24448F2227B
:1020CC009062F9E06402604E9062D0E07002A3E08E
:1020DC0060449062F9E014601904703AC39062D1C4
:1020EC00E094119062D0E09409502B9062F9740145
:1020FC00F0227FE07E937D047C009062D21206E198
:10210C00C312068E40109062D21207090000000024
:07211C009062F97402F02249
:1022E7009062F9E07008300528C20502080A90627A
:1022F700F9E0B4010B906308740BF0A374B8F022F3
:102307009062F9E0B4020A9063087405F0A374DCE4
:02231700F022B2
:10220A009062FEE0FEA3E0FF9062FBE0701AD3EF5B
:10221A009420EE940E5004D2078002C20790630CF9
:10222A007417F0A37470F022C3EF94C8EE940E40B2
:0D223A0002C20790630C7405F0A374DCF081
:012247002274
:0300420002141D88
:10141D00C0E0C0F0C083C082C0D075D000C000C095
:10142D0001C002C003C004C005C006C007786BE24E
:06143D0020E10302153A54
:10144300AF93EF75F010A4FFE594C4540FFDEF4D77
:10145300FF906320E5F0F0A3EFF0E24402F2906224
:09146300FAE06402600302150ABC
:10146C0012241D505EE004F0E0C39402404A9062E6
:10147C00CCE0FEA3D3122410400CE0FFA3E090625A
:10148C00CCCFF0A3EFF09062CEE0FEA3C3122410F9
:10149C00500CE0FFA3E09062CECFF0A3EFF090628F
:1014AC00C81206E1906320E0FEA3E0FFE4FCFD120D
:1014BC0005569062C81206FD12241D50067869E28A
:1014CC004401F212241D4066A31206C578041206CC
:1014DC009F9062F7EEF0A3EFF09062FA7403F09035
:1014EC0062C7E4F09062CCF0A3F09062CE74FFF08F
:0C14FC00A3F09062C81207090000000075
:1015080080309062FAE0B405081224259062FC80CD
:101518001C9062FAE0B407081224259062D0800D6E
:101528009062FAE0B4090B1224259062FECFF0A372
:02153800EFF0D2
:10153A00D007D006D005D004D003D002D001D00005
:0B154A00D0D0D082D083D0F0D0E032AF
:1011A80041633F00C108426339000042633B0000CD
:0511B80042633D000050
:0724E500E475F0010205405F
:10242D0043A820D2AF75D10178957401F218747656
:0B243D00F2789174A0F21874FDF222F6
:03001E0002167E49
:10167E00C0E0C0F0C083C082C0D075D000C000C032
:10168E0001C002C003C004C005C006C0077891E2C5
:10169E0020E70302177FE24480F290633FE004F0FC
:1016AE00E0C3940D4004E4F0D208906283E0C3944A
:0616BE00FF5003E004F000
:1016C400300225906269E0601F9063391224E5C3FB
:1016D40090633AE09460906339E094EA4011E4F056
:0F16E400A3F0906269F08007906339E4F0A3F0FF
:1016F30030072790633D1224E590633BE4F0A3F0A9
:10170300C390633EE0943290633DE09400402FE445
:10171300F0A3F09062FB04F0802490633B1224E575
:1017230090633DE4F0A3F0C390633CE09440906386
:0E1733003BE0941F4008E4F0A3F09062FBF04E
:101741009062F9E0B4012D74FFFFFEFDFC9062D2BE
:101751001206E1C312068E50259062D21206C5EF21
:101761002401FFE43EFEE43DFDE43CFC9062D21224
:1017710006FD800A9062D212070900000000D0071E
:10178100D006D005D004D003D002D001D000D0D0F3
:09179100D082D083D0F0D0E03208
:0911BD00C100C10142632F0000D2
:10206D009063231206C5EF4401FFEC906323020633
:10207D00FD906322E4F09063272290630EE0FEA3AF
:10208D00E0FF22906310E0FEA3E0FF22E475F00173
:10209D000205409063287401F0906327E4F02290CC
:1020AD006305E09F906304E09E22906307E09F909C
:0F20BD006306E09E22906322E004F0E0641822A4
:1023D00043A901D2AF75D104907105E4F090710466
:1023E0007424F090710174A0F090710074FDF022DB
:03002400020D4981
:100D4900C0E0C0F0C083C082C0D075D000C000C070
:100D590001C002C003C004C005C006C007907101EC
:100D6900E020E703020F79E04480F090632B122022
:100D79009990632D12209990632F122099C3906343
:100D89002EE0940D90632DE094004006E4F0A3F06A
:100D9900D201C390632CE0940D90632BE094004042
:070DA90006E4F0A3F0D20004
:100DB00020833D906329E004F0E0C3941E500302B9
:100DC0000EB8906322E064176003020EB890632AA5
:100DD000E09406400AE09414500512206D800B90B8
:100DE000632AE0C394014002E0FF1220A0020EB883
:100DF000906329E0D394005003020E9EE0D3943216
:100E000040129063231207090000000012207E04A4
:100E1000F0020E8B906327E06024906329E0C39476
:100E200002401BE094075016A3E0C39406400FE075
:100E30009414500A12206D1220C2604F80319063CA
:100E400027E06039906329E0C394074030E09414B0
:100E5000502BA3E0C394014024E09406501F9063FC
:100E6000231206C5EF54FE1220761220C2601CA386
:100E70001206C578011206B2122078800E90632304
:100E80001207090000000012207EF0906329E4F0B0
:100E9000A3F0906322E0B418191220A0801490638C
:100EA00027E0700E90632312070900000000122053
:100EB0007EF090632AE004F0906328E0601B90636A
:100EC00022E4F0906328F0A3F0A3F09063231206CD
:090ED000C59062BD1206FDD203BB
:100ED900C3906330E0941490632FE09400500302B0
:100EE9000F79E4F0A3F0300603020F79122087D3BB
:100EF9001220AC400990630EE475F00180101220B5
:100F090087C31220AC500A90630E74FFF5F01205E6
:100F190040122090D31220B74009906310E475F075
:100F2900018010122090C31220B7500A90631074E8
:100F3900FFF5F01205401220871224D312209012D7
:100F490024DCD390630FE0940090630EE09400508A
:100F59000512000F800312248BD3906311E09400D3
:100F6900906310E09400500512247D8003122498A8
:100F7900D007D006D005D004D003D002D001D000CC
:0B0F8900D0D0D082D083D0F0D0E03276
:0711C6004263441770C109E8
:1023F000E0FEA3E0FF1207BF7B0AE4FAF9F812053A
:10240000EEE422906313E094DD906312E0940422E2
:1018A7009062FCE0FFA3E0906312CFF0A3EFF0306B
:1018B70009030219A8D3906313E094EA906312E036
:1018C7009401500AE4906344F0A3F002199BD312E9
:1018D70024035029E0FEA3E0FFEF2416FFEE34FEB9
:1018E700FEE434FFFDE434FFFCE47BE07A2EF9F8F4
:1018F7001205631223F87BDD7A04021982D3906301
:1019070013E094EE906312E09408500E7C5D7DC066
:101917001223F07BEE7A08021982D3906313E094C6
:1019270012906312E0940B5017E0FEA3E0FF7C17C0
:101937007D701207BF7B021223FA7B127A0B803B62
:10194700D3906313E094BC906312E0940C500D7C29
:101957008C7DA01223F07BBC7A0C801FD39063137D
:10196700E09491906312E0940F501FE0FEA3E0FF14
:101977007CBB7D801223F57B917A0FF9F81205EE77
:10198700906344EEF0A3EFF0800A9063447417F07D
:10199700A37470F0906344E07002A3E0700BD20967
:0919A70022C31224034002C2090C
:0119B0002214
:1011CD004162690044627EFFFFFFFF4662C100007D
:1011DD0000000000C102C1034462BD0000000054C4
:1011ED00626A0821222324042526272802292A2B76
:1011FD002C012D2E2F306028629514010203041846
:10120D000506070810090A0B0C150D0E0F10051118
:10121D00121314081516171806191A1B1C091D1E72
:10122D001F205362823200000000000F12000000E8
:0C123D00040001FF1DAAFF0041626800D0
:101AAE00740175F02C906300120540D3906301E031
:101ABE009470906300E0941722740175F02C90637B
:101ACE0002120540D3906303E09470906302E09499
:101ADE00172274FE75F0D4120540C3906301E09492
:101AEE002C906300E094012274FF75F06A12054099
:101AFE00C3906301E09496906300E094002274FE1C
:101B0E0075F0D4120540C3906303E0942C906302E9
:101B1E00E094012274FF75F06A120540C3906303CE
:101B2E00E09496906302E094002212069F9062C1A8
:101B3E001206E1C302068E9062BD0206C57417F04E
:101B4E00A37470F0229062C6E064C522EE75F005B3
:101B5E00A4246AF582E4346222EE75F005A424957D
:101B6E00F582E43462227B017A6279C17406F0E474
:101B7E00FF2212069F90627E0206FD9062C112063F
:051B8E00C590627E22FB
:101DAA00200303021E42C203121B45EC4D4E4F7024
:041DBA0003021E3FC3
:101DBE00121B45EF906312F0906269E0602B906306
:101DCE0012E0540FFBBB010F121B457804121B804F
:101DDE00906312EBF0804A906312E064147042122A
:101DEE001B457808121B808038121B53702D906291
:101DFE00C5E0B40113121B457804121B387009900C
:101E0E006312E0540FF080199062C5E0B4020A121A
:101E1E001B457808121B386008800090631274FF0F
:101E2E00F09062BD12070900000000906312E0FFFF
:011E3E002281
:061E3F007FFF227FFF225D
:0221C500A90768
:1021C700E4FFFEEB64017014121B5AF583E0B501BE
:1021D70005121B5A80180EEEB404ED22EB64027050
:1021E70021FE121B67F583E0B50112121B67F58309
:1021F700E5822DF582E43583F583E0FF220EEEB408
:0222070008E0ED
:0122090022B2
:081F6B00906313EFF0A3EDF009
:101F7300E4A3F0A3F0906269E06035121B89121BA1
:101F83003E7018121B5370139062C5E0B4010280B7
:101F9300339062C5E064027050803C906313E0FFAD
:101FA300B414028037906313E0FF6401703B80191F
:101FB300121B89121B3E7031121B53702C9062C589
:101FC300E0B4010C906313E0FFA3E0FD7B018011FB
:101FD3009062C5E0B40212906313E0FFA3E0FD7BBF
:0E1FE300021221C5906315EFF0906315E0FF28
:011FF10022CD
:100AD300E4906312F0906293E0F47003020D48E037
:100AE300FFA3E0FD121F6B906312EFF0906293740B
:050AF300FFF0E4A3F098
:100AF800906269E06401705A906312E0FF90626846
:100B0800E06F7044EF64036005EF642F705E9062DD
:100B1800C674C5F090627E1206C59062C11206FDC9
:100B2800906312E09062C5B403057402F080037408
:100B380001F0E4FF12246C906317121B7412224810
:100B48009062697402F08024906312E0906268F009
:100B5800801A906269E0B40213906312E0FF6404A3
:0C0B68006004EFB43006E4906269F022F3
:100B7400121B536003020D48906269E0600F90629B
:100B84007E1206C5121B3B7004906269F0906312DA
:100B9400E01207930BE4010BE4040BF3050BF308D9
:100BA4000BF6090C010B0C100D0C1B0F0C2A110C6D
:100BB4002A140C30150C30180C36190C451B0C5B20
:100BC4001D0C731F0C8B210C9E230CBF250CBF28FE
:100BD4000CD4290CFB2B0D222D0D223000000D48C6
:100BE4001224A5EF70061224B1EF6003020D2E0249
:100BF4000D3C121AAE5003020D48020D45E475F087
:100C040096121AB35003020D48020D45121AC7502A
:100C140003020D48020D45E475F096121ACC5003F8
:100C2400020D48020D45906300020CCC9063020251
:100C34000CCC121AE84019121AE04003020D488045
:100C440023121AFE400A121AF64003020D488014B9
:100C5400E4906300020D38121B14400C121B0C406C
:100C640003020D48E4020D38E4906302020D3812C9
:100C74001B2A400C121B224003020D48E4020D38CB
:100C8400E4906302020D38121AAE4003121B4B1299
:100C94001AC75003020D48020D45906300E475F035
:100CA40096121AB64003121B4B906302E475F09639
:100CB400121ACF5003020D48020D45906300740BC5
:100CC400F0A374B8F0906302740BF0A374B8F0222C
:100CD400121AE84008121AE0500AE48004E490630F
:100CE40000F0A3F0121B144008121B0C5056E480B1
:100CF40043E4906302803D121AFE4008121AF65033
:100D04000AE48004E4906300F0A3F0121B2A400874
:100D1400121B22502FE4801CE490630280161224DC
:100D2400A5EF70061224B1EF600EE4906300F0A307
:100D3400F0906302F0A3F022906300121B4B9063C7
:040D440002121B4B31
:010D48002288
:10227F0078C0E24408F278C2E2543FF278D0E244E8
:10228F0002F278D2E254F3F2209104D2028002C219
:10229F000230020F906316121B741222B390626900
:0422AF007401F022A4
:0412490041634300BA
:10238E00906312F090634002073A9000061204AC7C
:10239E00FE9000080204AC90000912051E90000C7D
:0123AE00220C
:100F9400E4906312F07FFFA374FFF09063401207A4
:100FA4005A9000011204ACFE120493FDEEC39D504E
:100FB40003021126122392900001E412051E9000F0
:100FC4000E1207631207B9EFF460089063437423A9
:100FD400F08009906343E06003E014F012239290E0
:100FE40000031204AC6F60159000051204AC600D90
:100FF400900004E412051E900003021122900005E3
:101004001204ACFE9000041204ACC39E500B1223D5
:101014009290000474010204D912239290000212E7
:1010240004AC6F6048EFF4701C122398C39E400A0E
:10103400740412238E900002806112239290000A9D
:10104400740102111912239290000874011223A84A
:101054001204AC6F906340600C12073A74011223BF
:10106400A5EF02111912073A900009803DEFF470C0
:10107400411223929000091204ACD394005003024D
:10108400111C90000B1204ACFE90000A1204ACD3A5
:101094009E4011740112238E90000C1204AC9063D4
:1010A40013F0805412239290000A74011204D9029E
:1010B400111C12239212239FC394FF50089000081E
:1010C40074011204D9122398B506089063127402AD
:1010D400F0802012239290000712239B6E703990A7
:1010E400631274031223919000061204AC9000085A
:1010F40012051E906313EFF0122392E41223A574D9
:10110400FF12051E906313E090001112051E9063F8
:1011140012E090001212051E122392900002EF12A8
:02112400051EA6
:0111260022A6
:10246C0075AF3F8FAF75AEB975A402E5A530E1FB32
:01247C00223D
:1022480090631412075A75AF3F8FAF906317E0C3BE
:1022580094014022E5A530E0FB906314E475F00199
:10226800120743120493F5A675AEB975A4019063DD
:0722780017E014F080D522ED
:1022B30090631312075A906316E06027AE070FEE80
:1022C3002400FDE4343F8D82F583E493FE90631391
:1022D300E475F001120743EE12050C906316E01447
:0422E300F080D32292
:10245A0078D2E254CFF2E24410F2907188E4F0C2EA
:02246A009222BC
:10236A00C390630FE0945890630EE094025012C336
:10237A00906311E09458906310E094025003D29253
:04238A0022C29222B7
:04124D0041634701B1
:0724EC007869E24401F222CD
:1023AF0043A902D2AF75D10890710D7401F09071ED
:1023BF000C745DF090710974A0F090710874FDF0C9
:0123CF0022EB
:030027000219B10A
:1019B100C0E0C0F0C083C082C0D075D000C000C0FC
:1019C10001C002C003C004C005C006C00790710970
:0E19D100E020E703021A93907109E04480F0D1
:1019DF00906346E004F0E0C39408400AA3E0600679
:1019EF00E4F09062FAF0906346E0C3940A4007E493
:0619FF00F0D205A304F084
:101A05009062FAE06004E0B4090E7F011221239090
:101A150062FA7401F0021A939062FAE0B4010812B6
:101A250024EC7402F080679062FAE0B4030D7F0243
:101A35001221239062FA7404F080539062FAE0B4A4
:101A450004081224EC7405F080449062FAE0B405B1
:101A55000D7F031221239062FA7406F080309062A4
:101A6500FAE0B406081224EC7407F080219062FABB
:101A7500E0B4070D7F041221239062FA7408F08008
:101A85000D9062FAE0B408061224EC7409F0D00750
:101A9500D006D005D004D003D002D001D000D0D0DC
:091AA500D082D083D0F0D0E032F1
:101251004260030000426265000042626310004187
:1012610062670060406005FFFF00000000000000B1
:10127100000000000000000000000000000000006D
:10128100000000000000000000000000000000005D
:10129100000000000000000000000000000000004D
:1012A10000000000000000416000004160010041B9
:0512B100600200C10411
:101FF200EF25E0FFEE33FE74472FF58274603EF565
:1020020083227FC37E05E4FDFC9063121206E1D3B6
:1020120002068EECF0A3EDF0906318E475F0010275
:102022000540D390630BE094B890630AE0940B22CE
:10203200906318E0FEA3E0FFC322906000E025E079
:102042002405F582E43460F58322E4906318F0A35A
:10205200F02233FE74052FF58274603EF5832290E0
:0B2062006319E025E0FF906318E02206
:10080A00906312120709000000009062F7E0FFA34C
:10081A00E0906316CFF0A3EFF0906005E0F4700368
:05082A00A3E0F4703FA3
:10082F0012204D1220329420EE9400501590631632
:10083F00E0FCA3E0FDEF25E0FFEE1220541220159F
:10084F0080E112204C122032940EEE9401505990F8
:0F085F006316E0FCA3E0FD121FF212201580E6E5
:10086E0012203CE0FFA3E0906318CFF0A3EFF090CE
:10087E006316E0FEA3E0FF906318EE8FF0120540C2
:10088E00906318E0C313FEA3E013FF906318EEF01D
:10089E00A3EFF012203CEEF0A3EFF0906000E00426
:0908AE00F0E0C394204002E4F0E4
:1008B70012204C9063121206E1122061122054E0BC
:1008C700FEA3E0FFE4FCFD1205569063121206FD3D
:1008D70012201A906318E07004A3E0642070D4908B
:1008E70063121206C5780512069F9063121206FD61
:1008F7009063121206C5AD07AC06906046E025E08E
:10090700FF906045E033FE74472FF58274603EF533
:1009170083ECF0A3EDF090604512201DC390604674
:0F092700E0940E906045E094014004E4F0A3F0EA
:1009360012204C906265F0A3F09062637410F0A3ED
:10094600E4F0122032940EEE940140030209D9120B
:100956001FF2E0FCA3E0FD906265E0FAA3E0FBD3A2
:10096600ED9BEC9A400F121FF9E0FFA3E090626541
:10097600CFF0A3EFF0122061121FF7E0FCA3E0FD19
:10098600906263E0FAA3E0FBC3ED9BEC9A500F1272
:100996001FF9E0FFA3E0906263CFF0A3EFF090624F
:1009A60063E0FEA3E0FFC3906266E09FFF9062658E
:1009B600E09EFED3EF9450EE940040089062677478
:1009C6001EF08009906267E06003E014F012201ABE
:0309D600020948CB
:1009D900E47F8B7E06FDFC9063121206E1C31206CA
:1009E9008E500C3004597F8B7E061220084050E44B
:1009F900906001F0A3F0D204906267E0B41E1BE09E
:100A090014F0122024400774FFF5F0120540C312B8
:100A190020254003020AD2020A8D906267E0600332
:100A2900020AD2200003020AD2C200C390630BE07B
:100A3900947090630AE094174003020AD2803C1232
:100A490020044048E47F6D7E06122009400890602A
:100A590001E064047036300170C201906001E0C3A6
:100A690094045003E004F0E4906002F0C204122000
:100A79002440028043C31220255006E475F001800A
:100A89003C90630A740BF0A374B8F022122004405E
:100A990006906002E0603230012FC201906002745A
:100AA90001F0E4906001F0C204D390630BE0940874
:100AB90090630AE09407400874FF75F0FE02054050
:090AC90090630A7407F0A304F025
:010AD2002201
:1000450002034FE86480F8E933E83360110460F097
:10005500ED33EC337009E8FCE9FDEAFEEBFF220421
:1000650060DED3EB9FEA9EE99DE8C2E78CF0C2F71C
:1000750095F0400CE8CCF8E9CDF9EACEFAEBCFFBE8
:1000850012031A85D0F05804700320D5B3E8047024
:10009500075002B2D502035992D5EC0460F7E4CCBF
:1000A500C0E0C398F8603B94186008400DD0E0FBB1
:1000B500020331E4FBFAC9FC8028E830E406E4C910
:1000C500FBE4CAFCE830E305E4C9CACBFCE8540705
:1000D5006010F8C3E913F9EA13FAEB13FBEC13FC10
:1000E500D8F130F52FC3E49CFCEF9BFFEE9AFEEDB3
:1000F50099FDD0E0FBEF4E4D4C701222DB0302035D
:1001050056EC2CFCEF33FFEE33FEED33FDED30E71F
:10011500EB020331EF2BFFEE3AFEED39FDD0E0FBAC
:1001250050130BBB0003020359ED13FDEE13FEEF55
:0801350013FFEC13FC0203317F
:10013D00EC4D6011E8497017ED33EC3304600DE4BC
:10014D00FCFFFEFD22E933E8330470F802034F1281
:10015D00031A58046009E4CC248150062850090282
:10016D000359284003020356C0E0EB4A7044B9809E
:10017D0006D0E0FB020345EF4E701CBD8008EBFF7F
:10018D00EAFEE9FD80EBE98DF0A4FEE5F002022622
:10019D00E9CDF9EAFEEBFFEF89F0A4FCE5F0CE899D
:1001AD00F0A42EFFE435F0CD89F0A42DFEE435F05A
:1001BD008067EF4E7005BD80D780C3EF8BF0A4AC88
:1001CD00F0EE8BF0A42CFCE435F0F8EF8AF0A42CC3
:1001DD00E5F038FCE433CB8DF0A42CFCE5F03BF8D6
:1001ED00EE8AF0A42CFCE5F038F8E433CF89F0A4C6
:1001FD002CFCE5F038CF3400CE89F0A42FFFE5F0CC
:10020D003EFEE433C98DF0A42EFEE5F039CD8AF023
:10021D00A42FFFE5F03EFEE43DFD33D0E0FB50079B
:10022D000BBB000F020359EC2CFCEF33FFEE33FE3A
:06023D00ED33FD02033168
:10024300020359EC5D046005E85904700302034F8F
:1002530012031A580460F6EC4860F2EC7004FDFED9
:10026300FF22C860DB2481C85009C398600250068E
:100273000203569850CAF582E9294B4A7005AB82AE
:1002830002034575F0007C1A7880C3EF9BEE9AED6C
:1002930099400DC3EF9BFFEE9AFEED99FDE842F006
:1002A300DC23ACF0D0E0FFD0E0FED0E0FDAB822059
:1002B300E7101BEB60BAEC2CFCEF33FFEE33FEEDE3
:1002C30033FD020331E803F830E705C0F075F000B1
:1002D300EF2FFFEE33FEED33FD40B830E7C280AAC7
:1002E300EDD2E7CD33EC3392D524814006E4FFFE13
:1002F300FDFC22FCE4CFCECDCC24E0501174FF8072
:10030300EDC3CC13CCCD13CDCE13CECF13CF04700E
:07031300F030D5DE02068088
:1012B7009063121206FDE4FFFE7D807C3F9063126F
:1012C700E0F8A3E0F9A3E0FAA3E0FB12037E7006BF
:1012D700906312021411906312E0FCA3E0FDA3E0F7
:1012E700FEA3E0FF120364FBA3E0FCA3E0FDA3E081
:1012F700FEA3E0FF120364FFB40108E4FFFE7D8054
:101307007C3F22EF64046029EB64046024EBB401A2
:1013170030E4FFFEFDFC906316E0F8A3E0F9A3E0DC
:10132700FAA3E0FB12037E60084006E4FFFEFDFC23
:1013370022906316120709FFFFFFFF90631602143E
:1013470011E490631AF0A3F0FFFEFDFC906312E036
:10135700F8A3E0F9A3E0FAA3E0FB12037E505F9045
:101367006316E0FCA3E0FDA3E0FEA3E0FF1202E3A7
:1013770090631AEEF0A3EFF0FDCCEECCEC12040D67
:10138700C8ECC8C9EDC9CAEECACBEFCB906316E06B
:10139700FCA3E0FDA3E0FEA3E0FF120048E4FBFA94
:1013A700F9F812037E708A906312E0FCA3E0FDA3B4
:1013B700E0FEA3E0FF1203F79063121206FD9063AD
:1013C70012E0FCA3E0FDA3E0FEA3E0FF1215899065
:1013D7006316E0F8A3E0F9A3E0FAA3E0FB12013DEE
:1013E700121E7D9063161206FD90631BE030E01716
:1013F700906316E0FCA3E0FDA3E0FEA3E0FF120369
:10140700F79063161206FD906316E0FCA3E0FDA3B8
:06141700E0FEA3E0FF224D
:10031A00E9D2E7C933E833F892D5EDD2E7CD33EC29
:07032A0033FC5002B2D522A2
:10033100EC30E7100FBF000C0EBE00080DBD00042D
:100341000BEB6014A2D5EB13FCED92E7FD2274FFD9
:10035100FCFDFEFF22E480F8A2D574FF13FC7D8032
:03036100E480EF46
:10036400ED33EC33601004700FED547F70057402AC
:0A03740092E0227404220422E42225
:10037E0074F8CC6480CCC86480C8F58204604FC326
:10038E00EB9FF5F0EA9E42F0E99D42F0E89C45F0C5
:10039E00603C501DE5825FFFE582D313CB5BCBF44F
:1003AE002B5582FB50280ABA002409B90020088078
:1003BE001DE5825BFBE582D313CF5FCFF4C3132F12
:1003CE005582FF50090EBE00050DBD00010CC3EB9A
:1003DE009FF5F0EA9E42F0E99D42F0E89C45F06000
:0903EE0007CC4820E701B3EC2222
:1003F700ED33EC33600A047003BD8004ECB2E7FC14
:0104070022D2
:1004080075F020800E75F010800575F0087D007E6F
:10041800007F003392D530D503120680EC334010AC
:10042800EF33FFEE33FEED33FDEC33FCD5F0ED2278
:0E043800E5F0247EA2D513CC92E7CDCEFF22B4
:101E450033DA929E35B16011377FE5FE39218489F9
:101E55003AAEC3FF3C1D955B3D6358473E75FDF0AB
:101E65003F3172183F800000C2D502035902034F6B
:101E7500BD80FA50F3020356ED33EC330460F17B79
:101E85003B7AAA79B8783F12013DED33EC3392D510
:101E9500247B5011A2D570DB500BED4480240450F7
:101EA50004A2D580CEEFFBEEFAEDF9ECF81202E3D1
:101EB500EFF582F404FC12041212004CC082901E4D
:101EC500457409120455ED33CC33D0F092D525F085
:0A1ED500A2D57001C313CC13FD2247
:101555003E9248DA3ECCCCCD3F2AAAAB40000000F3
:101565003F8000003F9837F03FB504F33FD744FC78
:101575003E3172173EB172173F0515913EDE5BD9BC
:10158500D20A8002C20AEDD2E7F8CD33EC330470FB
:101595000BBD800592D502035902034F40FBD314BE
:1015A50060F2F5F07C3FEE7A00C39496C8948B40C8
:1015B500230AC89469C8941A401A0AC89468C8943A
:1015C5001F40110AC8945AC89425400805F07A00AE
:1015D500CDC2E7CDC0F090631C1206FDEA2323C0FF
:1015E500E02465F582E43415F5831206ED12004C0E
:1015F500ECC0E0EDC0E0EEC0E0EFC0E01206D19037
:10160500631C1206E1120048D0E0FBD0E0FAD0E0FE
:10161500F9D0E0B2E7F812024690631C1206FD907D
:101625001555740312044690631C1206E112013D20
:10163500D0E0600F2471F582E43415F5831206EDD0
:1016450012004C90631C1206FDD0E0C3947FFDE4AC
:101655009400FC12040D7B187A727931783F1201DF
:101665003D90631C1206E112004C300A0B7BD97ABF
:091675005B79DE783E12013D2292
:10044600C0E0EFFBEEFAEDF9ECF812013DD0E0F575
:10045600F0EFFBEEFAEDF9ECF81206D1A3A3A3A395
:10046600E8C0E0E9C0E0EAC0E0EBC0E0C0F012019D
:100476003D1206EDA3A3A3A312004CD0F0D0E0FBDF
:0D048600D0E0FAD0E0F9D0E0F8D5F0D422B3
:101EEB0002179AE493A3F8E493A34003F68001F25C
:101EFB0008DFF48029E493A3F85407240CC8C333F8
:101F0B00C4540F4420C8834004F456800146F6DFC6
:101F1B00E4800B0102040810204080901127E47E1E
:101F2B00019360BCA3FF543F30E509541FFEE493BB
:101F3B00A360010ECF54C025E060A840B8E493A382
:101F4B00FAE493A3F8E493A3C8C582C8CAC583CAAD
:101F5B00F0A3C8C582C8CAC583CADFE9DEE780BE65
:0112B6000037
:10049300BB010689828A83E0225002E722BBFE0267
:0904A300E32289828A83E493229A
:1004AC00BB010CE58229F582E5833AF583E0225005
:1004BC0006E92582F8E622BBFE06E92582F8E2224F
:0D04CC00E58229F582E5833AF583E4932269
:1004D900BB010FF8E58229F582E5833AF583E02827
:1004E900F0225009C58229F8E58226F622BBFE09C9
:1004F900C58229F8E22582F222F8EA2583F583E903
:0305090093282212
:10050C00BB010689828A83F0225002F722BBFE01CE
:02051C00F322C8
:10051E00F8BB010DE58229F582E5833AF583E8F013
:10052E00225006E92582C8F622BBFE05E92582C8BF
:02053E00F222A7
:10054000C5F0F8A3E028F0C5F0F8E5821582700246
:060550001583E038F022E3
:0D055600EF2BFFEE3AFEED39FDEC38FC22F4
:10056300E88FF0A4CC8BF0A42CFCE98EF0A42CFC37
:100573008AF0EDA42CFCEA8EF0A4CDA8F08BF0A4B5
:100583002DCC3825F0FDE98FF0A42CCD35F0FCEB14
:100593008EF0A4FEA9F0EB8FF0A4CFC5F02ECD39D9
:0F05A300FEE43CFCEAA42DCE35F0FDE43CFC2246
:1005B20075F008758200EF2FFFEE33FECD33CDCC00
:1005C20033CCC58233C5829BED9AEC99E582984083
:1005D2000CF582EE9BFEED9AFDEC99FC0FD5F0D660
:1005E200E4CEFBE4CDFAE4CCF9A88222B800C1B98A
:1005F2000059BA002DEC8BF084CFCECDFCE5F0CBC8
:10060200F97818EF2FFFEE33FEED33FDEC33FCEB00
:1006120033FB10D703994004EB99FB0FD8E5E4F9BB
:10062200FA227818EF2FFFEE33FEED33FDEC33FCA8
:10063200C933C910D7059BE99A4007EC9BFCE99A9C
:10064200F90FD8E0E4C9FAE4CCFB2275F010EF2FE1
:10065200FFEE33FEED33FDCC33CCC833C810D707E1
:100662009BEC9AE899400AED9BFDEC9AFCE899F81C
:0E0672000FD5F0DAE4CDFBE4CCFAE4C8F922AF
:0E068000C3E49FFFE49EFEE49DFDE49CFC228B
:10068E00EB9FF5F0EA9E42F0E99D42F0E89C45F0C2
:01069E002239
:10069F00E8600FECC313FCED13FDEE13FEEF13FF39
:0306AF00D8F1225D
:1006B200E8600FEFC333FFEE33FEED33FDEC33FCA6
:0306C200D8F1224A
:0C06C500E0FCA3E0FDA3E0FEA3E0FF22A8
:1006D100E493FC740193FD740293FE740393FF226F
:0C06E100E0F8A3E0F9A3E0FAA3E0FB229C
:1006ED00E493F8740193F9740293FA740393FB2263
:0C06FD00ECF0A3EDF0A3EEF0A3EFF02270
:10070900A8828583F0D083D0821207201207201295
:100719000720120720E473E493A3C583C5F0C583BA
:10072900C8C582C8F0A3C583C5F0C583C8C582C83A
:01073900229D
:09073A00E0FBA3E0FAA3E0F922C0
:10074300F8E0FBA3A3E0F925F0F0E582158270023F
:070753001583E0FA38F022E3
:09075A00EBF0A3EAF0A3E9F022A0
:10076300BB010DE58229F582E5833AF58302073A59
:100773005007E92582F80207ECBBFE07E92582F85A
:100783000207F5E58229F582E5833AF5830207FE40
:10079300D083D082F8E4937012740193700DA3A3F5
:1007A30093F8740193F5828883E473740293686009
:0607B300EFA3A3A380DF09
:0607B9008A838982E473CB
:1007BF00EC8EF0A4CCC5F0CCCDF8EFA4CEC5F02DC7
:1007CF00FDE43CFCE8A42EC8C5F03DFDE43CFCEF85
:0D07DF00A4FFE5F028FEE43DFDE43CFC2213
:0907EC00E6FB08E6FA08E6F92232
:0907F500E2FB08E2FA08E2F92235
:0C07FE00E493FB740193FA740293F92257
:00000001FF
